{
  "contractName": "VBets",
  "abi": [
    {
      "inputs": [],
      "payable": true,
      "stateMutability": "payable",
      "type": "constructor"
    },
    {
      "constant": true,
      "inputs": [
        {
          "internalType": "uint256",
          "name": "",
          "type": "uint256"
        }
      ],
      "name": "bets",
      "outputs": [
        {
          "internalType": "address",
          "name": "",
          "type": "address"
        }
      ],
      "payable": false,
      "stateMutability": "view",
      "type": "function"
    },
    {
      "constant": true,
      "inputs": [],
      "name": "owner",
      "outputs": [
        {
          "internalType": "address payable",
          "name": "",
          "type": "address"
        }
      ],
      "payable": false,
      "stateMutability": "view",
      "type": "function"
    },
    {
      "constant": true,
      "inputs": [],
      "name": "getBetsLength",
      "outputs": [
        {
          "internalType": "uint256",
          "name": "",
          "type": "uint256"
        }
      ],
      "payable": false,
      "stateMutability": "view",
      "type": "function"
    },
    {
      "constant": false,
      "inputs": [
        {
          "internalType": "string",
          "name": "description",
          "type": "string"
        },
        {
          "internalType": "uint256",
          "name": "voteAmountInWei",
          "type": "uint256"
        },
        {
          "internalType": "uint256",
          "name": "waitingTime",
          "type": "uint256"
        },
        {
          "internalType": "uint256",
          "name": "expirationTime",
          "type": "uint256"
        },
        {
          "internalType": "uint256",
          "name": "minBetterCount",
          "type": "uint256"
        }
      ],
      "name": "createBet",
      "outputs": [
        {
          "internalType": "address",
          "name": "",
          "type": "address"
        }
      ],
      "payable": false,
      "stateMutability": "nonpayable",
      "type": "function"
    }
  ],
  "bytecode": "0x608060405233600160006101000a81548173ffffffffffffffffffffffffffffffffffffffff021916908373ffffffffffffffffffffffffffffffffffffffff160217905550611d63806100546000396000f3fe608060405234801561001057600080fd5b506004361061004c5760003560e01c80631f796b571461005157806322af00fa146101745780638da5cb5b146101e2578063cc4580c81461022c575b600080fd5b610132600480360360a081101561006757600080fd5b810190808035906020019064010000000081111561008457600080fd5b82018360208201111561009657600080fd5b803590602001918460018302840111640100000000831117156100b857600080fd5b91908080601f016020809104026020016040519081016040528093929190818152602001838380828437600081840152601f19601f8201169050808301925050505050505091929192908035906020019092919080359060200190929190803590602001909291908035906020019092919050505061024a565b604051808273ffffffffffffffffffffffffffffffffffffffff1673ffffffffffffffffffffffffffffffffffffffff16815260200191505060405180910390f35b6101a06004803603602081101561018a57600080fd5b81019080803590602001909291905050506103d1565b604051808273ffffffffffffffffffffffffffffffffffffffff1673ffffffffffffffffffffffffffffffffffffffff16815260200191505060405180910390f35b6101ea61040d565b604051808273ffffffffffffffffffffffffffffffffffffffff1673ffffffffffffffffffffffffffffffffffffffff16815260200191505060405180910390f35b610234610433565b6040518082815260200191505060405180910390f35b6000808686868686600160009054906101000a900473ffffffffffffffffffffffffffffffffffffffff166040516102819061043f565b80806020018781526020018681526020018581526020018481526020018373ffffffffffffffffffffffffffffffffffffffff1673ffffffffffffffffffffffffffffffffffffffff168152602001828103825288818151815260200191508051906020019080838360005b838110156103085780820151818401526020810190506102ed565b50505050905090810190601f1680156103355780820380516001836020036101000a031916815260200191505b50975050505050505050604051809103906000f08015801561035b573d6000803e3d6000fd5b50905060008190806001815401808255809150509060018203906000526020600020016000909192909190916101000a81548173ffffffffffffffffffffffffffffffffffffffff021916908373ffffffffffffffffffffffffffffffffffffffff160217905550508091505095945050505050565b600081815481106103de57fe5b906000526020600020016000915054906101000a900473ffffffffffffffffffffffffffffffffffffffff1681565b600160009054906101000a900473ffffffffffffffffffffffffffffffffffffffff1681565b60008080549050905090565b6118e28061044d8339019056fe6080604052426000553480156200001557600080fd5b50604051620018e2380380620018e2833981810160405260c08110156200003b57600080fd5b81019080805160405193929190846401000000008211156200005c57600080fd5b838201915060208201858111156200007357600080fd5b82518660018202830111640100000000821117156200009157600080fd5b8083526020830192505050908051906020019080838360005b83811015620000c7578082015181840152602081019050620000aa565b50505050905090810190601f168015620000f55780820380516001836020036101000a031916815260200191505b50604052602001805190602001909291908051906020019092919080519060200190929190805190602001909291908051906020019092919050505085600c908051906020019062000149929190620001b3565b5084600f8190555083600d8190555082600e819055508160108190555080600160006101000a81548173ffffffffffffffffffffffffffffffffffffffff021916908373ffffffffffffffffffffffffffffffffffffffff16021790555050505050505062000262565b828054600181600116156101000203166002900490600052602060002090601f016020900481019282601f10620001f657805160ff191683800117855562000227565b8280016001018555821562000227579182015b828111156200022657825182559160200191906001019062000209565b5b5090506200023691906200023a565b5090565b6200025f91905b808211156200025b57600081600090555060010162000241565b5090565b90565b61167080620002726000396000f3fe60806040526004361061011f5760003560e01c8063b88a802f116100a0578063e071fc1f11610064578063e071fc1f146103f8578063ee177f8b14610426578063f82b91f414610451578063ff549cc21461047f578063ffaa3608146104aa5761011f565b8063b88a802f14610331578063bd7425ca14610348578063c376499314610373578063d9e2b73f146103a2578063da284dcc146103cd5761011f565b80637d3af3cf116100e75780637d3af3cf1461026e5780639958fc96146102995780639f396cff146102c4578063aa13e8c2146102db578063b59988bf146103065761011f565b806312065fe0146101245780631865c57d1461014f578063314b95e8146101885780637284e416146101b35780637a40624b14610243575b600080fd5b34801561013057600080fd5b506101396104c1565b6040518082815260200191505060405180910390f35b34801561015b57600080fd5b506101646104c9565b6040518082600481111561017457fe5b60ff16815260200191505060405180910390f35b34801561019457600080fd5b5061019d610563565b6040518082815260200191505060405180910390f35b3480156101bf57600080fd5b506101c8610570565b6040518080602001828103825283818151815260200191508051906020019080838360005b838110156102085780820151818401526020810190506101ed565b50505050905090810190601f1680156102355780820380516001836020036101000a031916815260200191505b509250505060405180910390f35b34801561024f57600080fd5b5061025861060e565b6040518082815260200191505060405180910390f35b34801561027a57600080fd5b50610283610614565b6040518082815260200191505060405180910390f35b3480156102a557600080fd5b506102ae610621565b6040518082815260200191505060405180910390f35b3480156102d057600080fd5b506102d9610627565b005b3480156102e757600080fd5b506102f06108f6565b6040518082815260200191505060405180910390f35b34801561031257600080fd5b5061031b6108fc565b6040518082815260200191505060405180910390f35b34801561033d57600080fd5b50610346610902565b005b34801561035457600080fd5b5061035d610ee0565b6040518082815260200191505060405180910390f35b34801561037f57600080fd5b50610388610ee6565b604051808215151515815260200191505060405180910390f35b3480156103ae57600080fd5b506103b7610f38565b6040518082815260200191505060405180910390f35b3480156103d957600080fd5b506103e2610f3e565b6040518082815260200191505060405180910390f35b6104246004803603602081101561040e57600080fd5b8101908080359060200190929190505050610f44565b005b34801561043257600080fd5b5061043b611152565b6040518082815260200191505060405180910390f35b61047d6004803603602081101561046757600080fd5b8101908080359060200190929190505050611158565b005b34801561048b57600080fd5b50610494611366565b6040518082815260200191505060405180910390f35b3480156104b657600080fd5b506104bf61136c565b005b600047905090565b60008060005442039050600d548110156104e7576000915050610560565b600d5481101580156104fa5750600e5481105b15610509576001915050610560565b600e54811015801561051f575061051e610ee6565b5b1561055a57600b54600a54111561053a576002915050610560565b600b54600a541015610550576003915050610560565b6004915050610560565b60049150505b90565b6000600480549050905090565b600c8054600181600116156101000203166002900480601f0160208091040260200160405190810160405280929190818152602001828054600181600116156101000203166002900480156106065780601f106105db57610100808354040283529160200191610606565b820191906000526020600020905b8154815290600101906020018083116105e957829003601f168201915b505050505081565b60005481565b6000600280549050905090565b600a5481565b600360003373ffffffffffffffffffffffffffffffffffffffff1673ffffffffffffffffffffffffffffffffffffffff16815260200190815260200160002060009054906101000a900460ff16806106c85750600560003373ffffffffffffffffffffffffffffffffffffffff1673ffffffffffffffffffffffffffffffffffffffff16815260200190815260200160002060009054906101000a900460ff165b801561071e5750600660003373ffffffffffffffffffffffffffffffffffffffff1673ffffffffffffffffffffffffffffffffffffffff16815260200190815260200160002060009054906101000a900460ff16155b61072757600080fd5b6001600481111561073457fe5b61073c6104c9565b600481111561074757fe5b1461075157600080fd5b6001600660003373ffffffffffffffffffffffffffffffffffffffff1673ffffffffffffffffffffffffffffffffffffffff16815260200190815260200160002060006101000a81548160ff021916908315150217905550600760008154809291906001019190505550600360003373ffffffffffffffffffffffffffffffffffffffff1673ffffffffffffffffffffffffffffffffffffffff16815260200190815260200160002060009054906101000a900460ff1615610820576008600081548092919060010191905055505b600560003373ffffffffffffffffffffffffffffffffffffffff1673ffffffffffffffffffffffffffffffffffffffff16815260200190815260200160002060009054906101000a900460ff1615610885576009600081548092919060010191905055505b600b600081548092919060010191905055507fde51fb9043f707b6b8a48720a9d358135b5f6bdb4549ce5817cb7fed82c68ab7600280549050600480549050600a54600b546040518085815260200184815260200183815260200182815260200194505050505060405180910390a1565b600d5481565b60105481565b6000471161090f57600080fd5b60006109196104c9565b90506002600481111561092857fe5b81600481111561093457fe5b148061095657506003600481111561094857fe5b81600481111561095457fe5b145b80610976575060048081111561096857fe5b81600481111561097457fe5b145b61097f57600080fd5b60048081111561098b57fe5b81600481111561099757fe5b1415610b4d5760008090505b600280549050811015610a3d57600281815481106109bd57fe5b9060005260206000200160009054906101000a900473ffffffffffffffffffffffffffffffffffffffff1673ffffffffffffffffffffffffffffffffffffffff166108fc600f549081150290604051600060405180830381858888f19350505050158015610a2f573d6000803e3d6000fd5b5080806001019150506109a3565b5060008090505b600480549050811015610ade5760048181548110610a5e57fe5b9060005260206000200160009054906101000a900473ffffffffffffffffffffffffffffffffffffffff1673ffffffffffffffffffffffffffffffffffffffff166108fc600f549081150290604051600060405180830381858888f19350505050158015610ad0573d6000803e3d6000fd5b508080600101915050610a44565b50600160009054906101000a900473ffffffffffffffffffffffffffffffffffffffff1673ffffffffffffffffffffffffffffffffffffffff166108fc479081150290604051600060405180830381858888f19350505050158015610b47573d6000803e3d6000fd5b50610edd565b60026004811115610b5a57fe5b816004811115610b6657fe5b1415610d1657600160009054906101000a900473ffffffffffffffffffffffffffffffffffffffff1673ffffffffffffffffffffffffffffffffffffffff166108fc6103e8600a6fffffffffffffffffffffffffffffffff16470281610bc857fe5b049081150290604051600060405180830381858888f19350505050158015610bf4573d6000803e3d6000fd5b5060006002805490504781610c0557fe5b04905060008090505b600280549050811015610ca65760028181548110610c2857fe5b9060005260206000200160009054906101000a900473ffffffffffffffffffffffffffffffffffffffff1673ffffffffffffffffffffffffffffffffffffffff166108fc839081150290604051600060405180830381858888f19350505050158015610c98573d6000803e3d6000fd5b508080600101915050610c0e565b50600160009054906101000a900473ffffffffffffffffffffffffffffffffffffffff1673ffffffffffffffffffffffffffffffffffffffff166108fc479081150290604051600060405180830381858888f19350505050158015610d0f573d6000803e3d6000fd5b5050610edc565b60036004811115610d2357fe5b816004811115610d2f57fe5b1415610edb57600160009054906101000a900473ffffffffffffffffffffffffffffffffffffffff1673ffffffffffffffffffffffffffffffffffffffff166108fc6103e8600a6fffffffffffffffffffffffffffffffff16470281610d9157fe5b049081150290604051600060405180830381858888f19350505050158015610dbd573d6000803e3d6000fd5b5060006004805490504781610dce57fe5b04905060008090505b600480549050811015610e6f5760048181548110610df157fe5b9060005260206000200160009054906101000a900473ffffffffffffffffffffffffffffffffffffffff1673ffffffffffffffffffffffffffffffffffffffff166108fc839081150290604051600060405180830381858888f19350505050158015610e61573d6000803e3d6000fd5b508080600101915050610dd7565b50600160009054906101000a900473ffffffffffffffffffffffffffffffffffffffff1673ffffffffffffffffffffffffffffffffffffffff166108fc479081150290604051600060405180830381858888f19350505050158015610ed8573d6000803e3d6000fd5b50505b5b5b50565b600f5481565b60006010546004805490506002805490500110158015610f1657506002808054905081610f0f57fe5b0460085410155b8015610f335750600260048054905081610f2c57fe5b0460095410155b905090565b60095481565b600e5481565b8034148015610f545750600f5434145b610f5d57600080fd5b60006004811115610f6a57fe5b610f726104c9565b6004811115610f7d57fe5b14610f8757600080fd5b600360003373ffffffffffffffffffffffffffffffffffffffff1673ffffffffffffffffffffffffffffffffffffffff16815260200190815260200160002060009054906101000a900460ff1615801561102b5750600560003373ffffffffffffffffffffffffffffffffffffffff1673ffffffffffffffffffffffffffffffffffffffff16815260200190815260200160002060009054906101000a900460ff16155b61103457600080fd5b6001600360003373ffffffffffffffffffffffffffffffffffffffff1673ffffffffffffffffffffffffffffffffffffffff16815260200190815260200160002060006101000a81548160ff02191690831515021790555060023390806001815401808255809150509060018203906000526020600020016000909192909190916101000a81548173ffffffffffffffffffffffffffffffffffffffff021916908373ffffffffffffffffffffffffffffffffffffffff160217905550507fde51fb9043f707b6b8a48720a9d358135b5f6bdb4549ce5817cb7fed82c68ab7600280549050600480549050600a54600b546040518085815260200184815260200183815260200182815260200194505050505060405180910390a150565b600b5481565b80341480156111685750600f5434145b61117157600080fd5b6000600481111561117e57fe5b6111866104c9565b600481111561119157fe5b1461119b57600080fd5b600360003373ffffffffffffffffffffffffffffffffffffffff1673ffffffffffffffffffffffffffffffffffffffff16815260200190815260200160002060009054906101000a900460ff1615801561123f5750600560003373ffffffffffffffffffffffffffffffffffffffff1673ffffffffffffffffffffffffffffffffffffffff16815260200190815260200160002060009054906101000a900460ff16155b61124857600080fd5b6001600560003373ffffffffffffffffffffffffffffffffffffffff1673ffffffffffffffffffffffffffffffffffffffff16815260200190815260200160002060006101000a81548160ff02191690831515021790555060043390806001815401808255809150509060018203906000526020600020016000909192909190916101000a81548173ffffffffffffffffffffffffffffffffffffffff021916908373ffffffffffffffffffffffffffffffffffffffff160217905550507fde51fb9043f707b6b8a48720a9d358135b5f6bdb4549ce5817cb7fed82c68ab7600280549050600480549050600a54600b546040518085815260200184815260200183815260200182815260200194505050505060405180910390a150565b60085481565b600360003373ffffffffffffffffffffffffffffffffffffffff1673ffffffffffffffffffffffffffffffffffffffff16815260200190815260200160002060009054906101000a900460ff168061140d5750600560003373ffffffffffffffffffffffffffffffffffffffff1673ffffffffffffffffffffffffffffffffffffffff16815260200190815260200160002060009054906101000a900460ff165b80156114635750600660003373ffffffffffffffffffffffffffffffffffffffff1673ffffffffffffffffffffffffffffffffffffffff16815260200190815260200160002060009054906101000a900460ff16155b61146c57600080fd5b6001600481111561147957fe5b6114816104c9565b600481111561148c57fe5b1461149657600080fd5b6001600660003373ffffffffffffffffffffffffffffffffffffffff1673ffffffffffffffffffffffffffffffffffffffff16815260200190815260200160002060006101000a81548160ff021916908315150217905550600760008154809291906001019190505550600360003373ffffffffffffffffffffffffffffffffffffffff1673ffffffffffffffffffffffffffffffffffffffff16815260200190815260200160002060009054906101000a900460ff1615611565576008600081548092919060010191905055505b600560003373ffffffffffffffffffffffffffffffffffffffff1673ffffffffffffffffffffffffffffffffffffffff16815260200190815260200160002060009054906101000a900460ff16156115ca576009600081548092919060010191905055505b600a600081548092919060010191905055507fde51fb9043f707b6b8a48720a9d358135b5f6bdb4549ce5817cb7fed82c68ab7600280549050600480549050600a54600b546040518085815260200184815260200183815260200182815260200194505050505060405180910390a156fea265627a7a72315820bbb57ec4e72019b6d008f9ddcf228b6a5de942849a9a6f7d04bc2d514f8ea76564736f6c63430005100032a265627a7a72315820e67cc6444252ce65a285e4a520f128222d1e4cca1fa66026f02137777fb6569564736f6c63430005100032",
  "source": "pragma solidity 0.5.16;\r\n\r\ncontract VBets {\r\n    address[] public bets;\r\n    function getBetsLength() external view returns (uint256) {\r\n        return bets.length;\r\n    }\r\n\r\n    address payable public owner;\r\n    \r\n    constructor() public payable {\r\n        owner = msg.sender;\r\n    }\r\n    \r\n    function createBet(string memory description, uint256 voteAmountInWei, uint256 waitingTime, uint256 expirationTime, uint256 minBetterCount) public returns (address) {\r\n        VBet bet = new VBet(description, voteAmountInWei, waitingTime, expirationTime, minBetterCount, owner);\r\n        bets.push(address(bet));\r\n        return address(bet);\r\n    }\r\n}\r\n\r\ncontract VBet {\r\n    uint256 public deployTime = block.timestamp;\r\n    \r\n    // All possible states of contract\r\n    enum State { Initiated, Pending, ForWon, AgainstWon, Aborted }\r\n\r\n    // Address that receives a small percentage of all bets\r\n    address payable private taxAddress;\r\n    uint128 constant tax = 10; // x / 1000 * voteAmount goes to taxAddress\r\n    \r\n    // Voters addresses (for fund transfering)\r\n    address payable[] private bettersForAddresses;\r\n    mapping (address => bool) private bettersFor;\r\n    function getBettersForLength() external view returns (uint256) {\r\n        return bettersForAddresses.length;\r\n    }\r\n    \r\n    address payable[] private bettersAgainstAddresses;\r\n    mapping (address => bool) private bettersAgainst;\r\n    function getBettersAgainstLength() external view returns (uint256) {\r\n         return bettersAgainstAddresses.length;\r\n    }\r\n\r\n    // Vote tracking during 'Pending' phase\r\n    mapping (address => bool) outcomeVoters;\r\n    uint256 outcomeVotersCount;\r\n\r\n    uint256 public votersFromForCount;\r\n    uint256 public votersFromAgainstCount;\r\n    uint256 public votersForCount;\r\n    uint256 public votersAgainstCount;\r\n    \r\n    // Contract parameters\r\n    string public description;\r\n    uint256 public waitingTime;\r\n    uint256 public expirationTime;\r\n    uint256 public voteAmountInWei;\r\n    uint256 public minBetterCount;\r\n    \r\n    event BetUpdate (\r\n        uint256 _bettersFor,\r\n        uint256 _bettersAgainst,\r\n        uint256 _votersFor,\r\n        uint256 _votersAgainst\r\n    );\r\n    \r\n    constructor(string memory _description, uint256 _voteAmountInWei, uint256 _waitingTime, uint256 _expirationTime, uint256 _minBetterCount, address payable _taxAddress) public {\r\n        description = _description;\r\n        voteAmountInWei = _voteAmountInWei;\r\n        waitingTime = _waitingTime;\r\n        expirationTime = _expirationTime;\r\n        minBetterCount = _minBetterCount;\r\n        taxAddress = _taxAddress;\r\n    }\r\n    \r\n    function enoughVoters() public view returns(bool) {\r\n        return (bettersForAddresses.length + bettersAgainstAddresses.length >= minBetterCount && votersFromForCount >= bettersForAddresses.length / 2 && votersFromAgainstCount >= bettersAgainstAddresses.length / 2);\r\n    }\r\n    \r\n    function getState() public view returns(State) {\r\n        uint256 timePassed = block.timestamp-deployTime;\r\n        \r\n        // First phase, waiting for bets\r\n        if (timePassed < waitingTime) {\r\n            return State.Initiated;\r\n        }\r\n        // Second phase, waiting for votes\r\n        else if (timePassed >= waitingTime && timePassed < expirationTime) { // Second \r\n            return State.Pending;\r\n        }\r\n        // Third phase, result evaluation\r\n        else if (timePassed >= expirationTime && enoughVoters()) {\r\n            if (votersForCount > votersAgainstCount) return State.ForWon;\r\n            else if (votersForCount < votersAgainstCount) return State.AgainstWon;\r\n            else return State.Aborted;\r\n        }\r\n        else {\r\n            return State.Aborted;\r\n        }\r\n    }\r\n    \r\n    function getBalance() external view returns(uint256) {\r\n        return address(this).balance;\r\n    }\r\n    \r\n    function claimReward() public {\r\n        require(address(this).balance > 0);\r\n        State state = getState();\r\n        require (state == State.ForWon || state == State.AgainstWon || state == State.Aborted);\r\n        if (state == State.Aborted) {\r\n            for (uint256 i = 0; i < bettersForAddresses.length; i++) {\r\n                bettersForAddresses[i].transfer(voteAmountInWei);\r\n            }\r\n            for (uint256 i = 0; i < bettersAgainstAddresses.length; i++) {\r\n                bettersAgainstAddresses[i].transfer(voteAmountInWei);\r\n            }\r\n            taxAddress.transfer(address(this).balance);\r\n        }\r\n        else if (state == State.ForWon) {\r\n            taxAddress.transfer(address(this).balance * tax / 1000);\r\n            uint256 reward = address(this).balance / bettersForAddresses.length;\r\n            for (uint256 i = 0; i < bettersForAddresses.length; i++) {\r\n                bettersForAddresses[i].transfer(reward);\r\n            }\r\n            taxAddress.transfer(address(this).balance);\r\n        }\r\n        else if (state == State.AgainstWon) {\r\n            taxAddress.transfer(address(this).balance * tax / 1000);\r\n            uint256 reward = address(this).balance / bettersAgainstAddresses.length;\r\n            for (uint256 i = 0; i < bettersAgainstAddresses.length; i++) {\r\n                bettersAgainstAddresses[i].transfer(reward);\r\n            }\r\n            taxAddress.transfer(address(this).balance);\r\n        }\r\n    }\r\n    \r\n    function voteFor() public {\r\n        require((bettersFor[msg.sender] || bettersAgainst[msg.sender]) && !outcomeVoters[msg.sender]);\r\n        require(getState() == State.Pending);\r\n        outcomeVoters[msg.sender] = true;\r\n        outcomeVotersCount++;\r\n        if (bettersFor[msg.sender]) votersFromForCount++;\r\n        if (bettersAgainst[msg.sender]) votersFromAgainstCount++;\r\n        votersForCount++;\r\n        emit BetUpdate(bettersForAddresses.length, bettersAgainstAddresses.length, votersForCount, votersAgainstCount);\r\n    }\r\n    \r\n    function voteAgainst() public {\r\n        require((bettersFor[msg.sender] || bettersAgainst[msg.sender]) && !outcomeVoters[msg.sender]);\r\n        require(getState() == State.Pending);\r\n        outcomeVoters[msg.sender] = true;\r\n        outcomeVotersCount++;\r\n        if (bettersFor[msg.sender]) votersFromForCount++;\r\n        if (bettersAgainst[msg.sender]) votersFromAgainstCount++;\r\n        votersAgainstCount++;\r\n        emit BetUpdate(bettersForAddresses.length, bettersAgainstAddresses.length, votersForCount, votersAgainstCount);\r\n    }\r\n    \r\n    function betFor(uint256 amount) payable public {\r\n        require(msg.value == amount && msg.value == voteAmountInWei);\r\n        require(getState() == State.Initiated);\r\n        require(!bettersFor[msg.sender] && !bettersAgainst[msg.sender]);\r\n        bettersFor[msg.sender] = true;\r\n        bettersForAddresses.push(msg.sender);\r\n        emit BetUpdate(bettersForAddresses.length, bettersAgainstAddresses.length, votersForCount, votersAgainstCount);\r\n    }\r\n    \r\n    function betAgainst(uint256 amount) payable public {\r\n        require(msg.value == amount && msg.value == voteAmountInWei);\r\n        require(getState() == State.Initiated);\r\n        require(!bettersFor[msg.sender] && !bettersAgainst[msg.sender]);\r\n        bettersAgainst[msg.sender] = true;\r\n        bettersAgainstAddresses.push(msg.sender);\r\n        emit BetUpdate(bettersForAddresses.length, bettersAgainstAddresses.length, votersForCount, votersAgainstCount);\r\n    }\r\n}",
  "sourcePath": "C:/Users/vlada/Documents/Git/VU ISI/VBet/contracts/VBets.sol",
  "compiler": {
    "name": "solc",
    "version": "0.5.16+commit.9c3226ce.Emscripten.clang"
  },
  "schemaVersion": "3.3.2",
  "updatedAt": "2020-12-23T15:04:45.524Z",
  "networkType": "ethereum",
  "devdoc": {
    "methods": {}
  },
  "userdoc": {
    "methods": {}
  }
}